:020000040000FA
:10000000F046002011150000F7400000FD1400002C
:10001000FD140000FD140000FD140000FD1400009C
:10002000000000000000000000000000E1150000DA
:10003000FD14000000000000FD140000FD1400008D
:1000400025170000251700002517000025170000C0
:1000500025170000251700002517000025170000B0
:1000600025170000251700002517000025170000A0
:100070002517000025170000251700002517000090
:100470002517000025170000251700007FB502F0A2
:10048000F4FB01A800F060FB134B1B68834200D013
:10049000FEE769469DF8080002F0DFFB009B039C25
:1004A0001C44019B1D8900F061FD661900F042FDAE
:1004B00003F091FE01F046FB01F05AF8635983F313
:1004C0000888002383F31488BFF36F8FBFF36F8F07
:1004D00073689847FEE700BF9000002021B1012912
:1004E00006D06FF015007047044B53F8300070478A
:1004F000024B03EBC0035868704700BF184E000062
:100500002DE9F04F9B46D9B0764B039038A8DDE932
:1005100063890E461446659F1D6800F0DFFCB8F144
:10052000000F07D0B9F1000F04DD4A46414638A854
:1005300003F0EEFB4FF0000833897289D6F80CA067
:1005400013449A44C2453DD838A90CA803F006FCD0
:1005500027B1202238460CA903F029FE00232246A9
:10056000009331464FF6FF7306A802F07FFB074663
:1005700028BB214603980B9E02F053FC86421ED8EE
:100580004FF0FF36DFF860B1DFF860910DF1120334
:1005900004AA05A906A802F0B7FB00280FDB40F06B
:1005A0009A80059906A802F0FBFB10BB4FF6FF717D
:1005B000BDF812004E4A32F8023B8B4217D1494B2C
:1005C0001D688BE0629BAAEB0809994528BF9946F4
:1005D0005A464B464146204603F0F8FC0028EED12F
:1005E0004A46594638A803F093FBC844AAE7984204
:1005F000E1D1BDF81230102B17D0222B4DD0012B9A
:10060000C4D1BDF81030202BD9D82046059938AA7E
:1006100003F0DCFC06460028D1D19DF810A0BAF109
:10062000200F19D94FF0FF36B0E7BDF81070202F1A
:10063000C5D13B462046059938AA03F0C7FC0028DF
:10064000BDD13A4638A90CA802F0E4FBDBF8003033
:100650008342B4D1012799E7D9F80030DFF89480BC
:100660000393039B9E42DDDA1CA800F037FCD8F808
:1006700004201CA8126858F8081B03F049FB1CA9A9
:1006800014A803F06BFB524638A914A803F07FFDB1
:1006900000283FF47BAF0136E3E7731C3FF476AFED
:1006A000D9F80030B342BDDDBDF81030802B86D8BC
:1006B0002046059938AA03F089FC00287FF47FAF13
:1006C000F6B22021BDF81030009638AA0CA800F030
:1006D00013F80546A6E7002F3FF471AF284659B03E
:1006E000BDE8F08F0400002090000020204E0000A4
:1006F000E4500000244E00002DE9F04798B0164663
:100700001D469DF88020394B074653F8321003EB05
:10071000C2035B6803911868DFF8D480014430237A
:1007200004AA03A8D8F8009002F0ABFC002849D135
:10073000DDE903431C44214608AB05AA03A802F0E7
:10074000C8FC00283ED1069A072A3BD129490798C0
:1007500003F01DFD002835D1099A082A32D1264917
:100760000A9803F014FD68BB214604AA03A802F00E
:100770009CFC38BBDDE903A30AEB0302944221D1C0
:10078000412B1FD135443023294605AA04A80496DD
:1007900002F077FCA0B9DDE9043213449D420FD387
:1007A0002A4604A908A802F009FB48B92A4604A968
:1007B00010A802F003FB18B99AF80030042B05D0FA
:1007C000D8F80090484618B0BDE8F08700F098FAD5
:1007D00020220090394608AB0AF1010003F035F9F8
:1007E0000128EDD1054BD3F80090EBE7244E000033
:1007F000040000201B510000125100009000002056
:10080000F0B52C2505FB01052F6A044685B0384656
:100810000E4603F024FC6B1EEA1C13F8011F8142F4
:1008200008D19342F9D11B4B186805B0F0BD1A4BA3
:10083000186823E02C237343E2181169C806F2D428
:10084000E058164B9842F2D1D06813891B18EED2AB
:100850005289D218EBD2BB689A42E8D240F60C63B8
:100860000B40E4D1CDE9023301934FF480733A4653
:100870000093294620460A4BFFF742FE094B1B68AE
:100880008342D2D0002ECED000213846BA6803F081
:10089000C7FBC8E700000020040000203DB8F39625
:1008A000E8150020900000202DE9F04B0E46904600
:1008B00099460024099FDFF844B0BC4201D30020D0
:1008C0000EE03D1BB5F5806F28BF4FF480653046C4
:1008D0002B460A4A04EB090103F078FB10B1012012
:1008E000BDE8F08B08992B465A464046611803F044
:1008F00082FB0028F3D12C44DFE700BF94000020E6
:100900002DE9F0430E4600218B4B0446436203F56C
:1009100000638BB003650846FFF7E0FD04F120019A
:10092000C0B200F071FC20BB0121FFF7D7FD04F13C
:100930004C01C0B200F068FCD8B9204602F0D1FAF0
:10094000C0B90021204602F0B7FA054668B9204632
:1009500002F0FFFA48B106A802F0E5FA02F0ECFA5C
:100960000146D0B9204602F0A7FA012384F8583096
:1009700005E0FEE70123984284F85830E1D194F86D
:100980005830042B8DF81F302FD8012B2FD800F0B2
:100990009380FF2384F858308EE09DF81F70012F5C
:1009A00017D1284601F0AAFB831E022B05460DD85D
:1009B00039462046FFF724FF604B1B68984205D05C
:1009C0005F4B1D68A84214BF0525012584F85850C7
:1009D000D5E701212046FFF713FF584B1B689842CB
:1009E00014BF05239DF81F30C0E7052BCFE7002576
:1009F0002F4605AA01212046059502F015FA236A23
:100A000003A9187800F000FC052004A900F0FCFB05
:100A1000D4F82890B94512D0636A294603EBC7037E
:100A2000D3F804800398424603F0FAFA059B454444
:100A30009D4246D3E56DB3FBF5F305FB0355E06D31
:100A400002F0EAF9A26A636A013A196803EBC20389
:100A500000225F689C463A449042A3F10803F8D80C
:100A6000DCF800300398591A03F0DAFADDE90321C3
:100A70000023204601950093FFF716FFE0B9039885
:100A800001F0C6FA0146B8B9236D04985A6803F01C
:100A9000C7FAD4E91423013B52F8331002EBC30028
:100AA00013684268C91A049803F0BAFA039803F06D
:100AB0008CFA049803F089FA94F85830FF2B02D18D
:100AC000FEE70137A6E70021012B1E4D059113D04B
:100AD000204602F0F1F978B12D681022002106A815
:100AE00003F070FBE06C03F070FA206A03F06DFA1B
:100AF00028460BB0BDE8F08300212046FFF780FEBA
:100B00000E4F3B688342E7D12A689A42E4D00C4AF0
:100B100012689A42E0D0059B01330593059B012B97
:100B200000D0FEE7206A02F09EF83071236A5B680D
:100B300034603D68B360D0E794040020900000204A
:100B4000000000200400002038B5064D0446602255
:100B50000021284603F036FB21462846FFF7D0FE49
:100B600038BD00BF941400200A4619B1024B002181
:100B70001B681847704700BF080000200822F0B526
:100B800089B002F0E2FBCB6A002703930B6B0C46A3
:100B900004934B6B064605938B6BCDE90177069367
:100BA000CB6B0097079313466A461146104602F036
:100BB000DAFA31460546304602F0D5FA216B054493
:100BC0000391616B10460491A16B0591E16BCDE936
:100BD0000617114602F0C7FA31460544304602F0C6
:100BE000C2FA0544206ACDE904770090606A039751
:100BF0000190A06A0290A06B0690E06B07903046CF
:100C000002F0B1FA0544606AD4F838C00090A06AD6
:100C1000CDF810C00190E06AD4F83CC00290606B3F
:100C2000CDE905C00390206A0790304602F09BFA98
:100C30000544E06ACDE904770090206B03970190AA
:100C4000606B0290206A0690A06A0790304602F01E
:100C5000AFFB236B2D1A0093636B30460193A36B9C
:100C60000293E36B0393636A0693E36A0793082393
:100C700002F09EFB636B2D1A0093A36B3046019329
:100C8000E36B0293236A0393636A0493A36ACDE937
:100C90000537236B0793082302F08AFBA36B2D1AF9
:100CA0000093E36B3046CDE90137636A0393A36A8F
:100CB0000493E36A0593636B0793082302F078FBC0
:100CC0002D1A10D40D4C35B908223146204602F0B9
:100CD00048FB01280FD0082322463146304602F057
:100CE00067FB2D1AEFE7054A08233146304602F02C
:100CF0003AFA2D18F8D409B0F0BD00BF304E00000C
:100D0000004870472C4E00002DE9F04F0027036883
:100D10009DB002934368DFF8BCA103938368DDE9CB
:100D200002460493C36805930369DDE904BE069394
:100D3000436907938369DDE9062C0893C3699846E4
:100D40000993089B0093CD590CAB2DBA5AF8049B1C
:100D5000DD514FEAF223A94483EAB213009D83EAEE
:100D600072634B4425EA020502EA0C0985EA09058B
:100D70002B44434486EA0B054FEA743888EAB408EA
:100D8000254006EA0B0985EA090588EAB4580437C4
:100D9000A844402F03EB0E054344DE46DDF80080F7
:100DA00040F088804FF0100A4B490A9151460AF1F1
:100DB000010A0DF1700E0AF00F070EEB870757F8C6
:100DC000407C01F00F094FEAB748019788EAF7180D
:100DD00001F10E0707F00F070EEB870757F8407C6D
:100DE00009314FEAF74E8EEA774ECDF82CE001F04C
:100DF0000F010DF1700E0EEB81010EEB890959F810
:100E000040EC51F8401CBAF1400F7144DDF804E0A9
:100E100088EADE08DDF82CE041448EEA972E714422
:100E200005EA02084FEAF52E2CEA050787EA0807CB
:100E30008EEAB51EDDF828808EEA756E774458F884
:100E400004EF49F8401C77440F4400994FEA733E81
:100E5000394484EA0607CDF828808EEAB30E07EA03
:100E6000030704EA06088EEAB35E87EA08077744B8
:100E70000F4401EB0B0ECDF800C0B34622D102990E
:100E80003944016003991944049B41602344836001
:100E9000059B3344C360069B73440361079B2B444B
:100EA0004361089B13448361099B6344C3611DB084
:100EB000BDE8F08FB346CDF800C0264694461C46E8
:100EC0002A4640E7944626462A461C4675463B4637
:100ED0006CE700BFDC4E0000184F000010B5044660
:100EE000C8B17022002102F096FF0B4B0B4A0C494F
:100EF000C4E900230B4B0C48C4E902130B4BC4E9B3
:100F0000040301200A4BA36103F17453A3F52303E7
:100F1000A3F69243E36110BD85AE67BB67E6096A3D
:100F200072F36E3C3AF54FA57F520E518C68059BCB
:100F3000ABD9831FBFF36F8F72B600234FF0FF3022
:100F4000094A03F120010133102B42F82100F8D1A6
:100F500000234FF0FF30044A03F160010133102BEE
:100F600042F82100F8D1704700E100E0F8B54FF0F9
:100F7000FF3600250127184CC620C4F8086300F08E
:100F80004FFBE762C4F85051D4F85031C4F84C51CB
:100F9000D4F84C31C4F82451D4F82431C4F80055A5
:100FA00004F578344FF48270C4F8086300F038FB1D
:100FB000E762C4F85051D4F85031C4F84C51D4F819
:100FC0004C31C4F82451D4F82431044BC4F80055F2
:100FD000C3F80863F8BD00BF00600C5000E010507B
:100FE0002DE9F047058B04462807904611D40229C5
:100FF00005F0070540F0CC80204602F00EFF78B1E6
:101000000138218B042811D8DFE800F0C2106D856B
:10101000950001290CBF45F0100545F020052583FA
:1010200088F31188BFF36F8FBDE8F08701F0070ADE
:10103000AA4500F0A5800027B9463E46A368002BCC
:1010400000F0BC8041F00801218388F31188BFF3D0
:101050006F8FA168002900F0BA800D68002900F0A8
:10106000B680334652462046D1F80480C047002D52
:1010700076D02B6829461D46F0E701F007035A1F7A
:10108000012A1BD8002221F00701062B276889B20C
:10109000C4E9002209D13B4603E0628B013262833E
:1010A0001B68002BF9D141F002012046218302F098
:1010B000B4FE00287AD041F0200176E0042B0AD15A
:1010C00021F0070189B22046218302F0A6FE10B16B
:1010D00041F020012183218B01F0070AAA454FD05E
:1010E0000027B946AAE7236921F0070141F006016C
:1010F000062DD3F8009021832DD1B9F1000F3FD0F8
:1011000041F00801218388F31188BFF36F8F2046D7
:101110003949C84729E021F00701236941F004015A
:1011200089B2042DD3F804902183E6D000274FF034
:10113000040A3E4682E721F00701236941F00501D8
:1011400089B2052DD3F808902183D6D000274FF01F
:10115000050A3E4672E700274FF0060A3E466DE755
:101160002B4687E7B9F1000FD1D1EFF31188202387
:1011700083F31288BFF36F8F238B23F0080323833D
:10118000258BEA062ED525F01003238305F00705ED
:101190006669218B002EBFF670AF00232768C4E973
:1011A000003321F0070141F001012183218B4FF031
:1011B000000901F0070AAA457FF440AF002F9CD038
:1011C00041F00801218388F31188BFF36F8F002F4E
:1011D000C8D03D68394633465246204602F049FEA3
:1011E0002F46F4E7AB067FF51BAF25F020032383E2
:1011F00005F0070500E700BF9F3E0000014B0360BC
:1012000000207047E04F000070B5104B0D461C6881
:10121000B4B10F4B196800238B4202DB6FF0010061
:1012200070BD224612F8106B864202D0144601337C
:10123000F2E7E06803F0FFF828B100202C60EFE748
:101240006FF00C00ECE76FF01200E9E70C000020F3
:10125000E04F000010B5436888B0029383680C46E5
:10126000CDE9033200230A68C068CDE906230549A9
:1012700001AA059303F038F8079808B9059B236085
:1012800008B010BD6D40000030BFFFF7FDBF00BFCC
:10129000154B9A6A12F0007F9A6A14BF1E201D2017
:1012A00012F0807F9A6A18BF1F2012F4801F9A6A7A
:1012B00018BF202012F4002F9A6A18BF212012F4C0
:1012C000802F9A6A18BF222012F4003F9A6A18BF32
:1012D000232012F4803F9A6A18BF24206FEA02424A
:1012E0006FEA12429A62704700ED00E010B5184BA9
:1012F0000246986A9C6A10F4805F14BF172016207B
:1013000014F4006F9C6A18BF1820A40508D5986AC9
:10131000000404D51AB19A6A22F400429A62192094
:101320000B4B9A6A12F4806F9A6A18BF1A20D20582
:101330000CD49B6A13F4005F18BF1C20044A936A04
:1013400043F47F43936200230B7010BD1B20F5E72D
:1013500000ED00E010B51C4B0246986A9C6A10F044
:10136000100F14BF1120102014F0080F9C6A18BF32
:101370001220A40709D5586B986A000604D51AB143
:101380009A6A22F080029A6213200F4B9A6A12F036
:10139000010F9A6A18BF142012F0200F9A6A18BF22
:1013A0001520D40658BF9B6A074B9A6A920642BF23
:1013B0005A6A22F400525A629A6A42F0FF029A6212
:1013C00000230B7010BD00BF00ED00E070B5444B72
:1013D00006465B6800258AB0C3F3080385F31188CD
:1013E000BFF36F8F02F07F40B0F17F4F11D102F059
:1013F0000C0008280DD010074CBF0E460125002216
:10140000033B8DF80720032B05D8DFE803F01E5CB3
:1014100060592E46F3E700249DF807309BB920223F
:10142000314602A802F0C3FE099B002D53D0C3F33E
:10143000080222B96FEA53236FEA43230993204637
:1014400002A902F04EFE0AB070BD254BDA6A910780
:10145000E1D4DA6A002ADEDBDA6A5200DBD55A69A7
:10146000B16942F480725A61BFF34F8FBFF36F8F3F
:101470005A6931F8021C22F480725A61BFF34F8F0F
:10148000BFF36F8F4DF60272914209D09A6AD2B2C1
:1014900042B101200DF10701FFF75CFF0446BBE7F5
:1014A0003468B9E79A6A12F47F4F05D001200DF134
:1014B0000701FFF71BFFF1E79B6AB3F5803FAAD353
:1014C000FFF7E6FEEAE700200DF10701E4E7002060
:1014D0000DF10701EDE723F4FF7323F00103ADE7FE
:1014E00000ED00E0044B5A6942F010025A615A695B
:1014F00022F008025A61704700ED00E0EFF3088027
:10150000EFF3098101B57246FFF760FF01BD00BF2F
:10151000002080F31488BFF36F8F002080F30A88C7
:1015200080F30B880F4880F3088800F063FE0020EA
:101530000D490860BFF34F8F00F02CF8202080F396
:1015400011880A484FF40061401880F30988EFF3CE
:1015500014800221084380F31488BFF36F8F00F0DA
:1015600097F80000F046002094ED00E0F01600200F
:10157000002318460649D1F89020C2F3072293426F
:1015800000DB7047C1F89830C1F8A0000133F6E7DE
:1015900000ED00E010B572B6002484F31388FFF765
:1015A000E7FF23464FF0FF300C4A03F120010133DF
:1015B000102B42F82100F8D100234FF0FF30074AEA
:1015C00003F160010133102B42F82100F8D162B61B
:1015D000BFF34F8FBFF36F8F10BD00BF00E100E07E
:1015E0001EF0040F0CBFEFF30880EFF30980816950
:1015F00011F8021C0229FFD001B5724602F077FDF6
:1016000001BD00BF00B2002807DB01234109034AE6
:1016100000F01F00834042F82130704700E100E0F5
:1016200000B200280CDB01220649430900F01F002C
:101630008240203341F82320BFF34F8FBFF36F8FD9
:10164000704700BF00E100E0054B420953F822203B
:10165000012300F01F0003FA00F01040704700BFA4
:1016600000E100E000B2002801F10101ACBF00F18F
:101670006040064B4FEA4111C9B2ABBF00F5614073
:1016800000F00F0080F800131954704714ED00E0CB
:101690000B4A08B50B4B22F07F029A60BFF34F8FC5
:1016A000BFF36F8FD3F8882022F47002C3F888202C
:1016B00001F000FA01F040FA00F024F801F006FA17
:1016C0000000000000ED00E080B50C46074615461E
:1016D000064E86F309884FF00000054988472046EA
:1016E00029461A46B84703488047FEE7F0460020DF
:1016F0000F4100001D4100001022014B1A6170478C
:1017000000ED00E00023202040F20F1210B5044C41
:10171000E1180133934281F80003F9D110BD00BFF5
:1017200000E100E008B5EFF30583064A103B02EB49
:10173000C30152F8330049688847BDE8084002F009
:10174000E1BC00BF384500000121024B024A0348BA
:1017500000F0ECB800F0022000000020645000000F
:1017600010B50C7A0B6804F01F0223F01F031A4314
:10177000CB68640923F01F03054943EA440343F09F
:101780000103C1F89800C1F89C20C1F8A03010BD39
:1017900000ED00E010B5074BD3F89030C3F30723FA
:1017A000013B984202D8FFF7DBFF10BD6FF0150038
:1017B000FBE700BF00ED00E02DE9F04F0F461446B7
:1017C00006464FF000084D4D85B0B84580F2928036
:1017D000D6F80490B9F1000F36D0B9F11F0F40F2DE
:1017E000878019F01F0F40F08380D6F800A01AF010
:1017F0001F0F7DD1504602F0A8FC834609EB0A007A
:10180000013802F0A2FC834572D11BF1160F6FD094
:101810005C456DDDC5F898B0D5F89C10C5F898B05A
:10182000D5F8A03021F01F0143F01F0AD6E900329D
:101830001A44994202F1FF391ED1CA4508D13146F6
:101840005FFA8BF002F08AFC08F101080C36BCE765
:101850003146C5F898B0D5F89C3022F01F0203F04D
:101860001F031343C5F89C30E0B202F077FC10F17F
:10187000160F3DD0441CE7E7C5F898B0D5F8A02076
:10188000013B23F01F0302F01F021343CA453146F8
:10189000E0B2C5F8A030E8D002F060FC10F1160FFD
:1018A00026D0C5F898B0D5F89C209DF808300AF1EC
:1018B000FF3A62F304038DF80830D5F8A0309DF8A4
:1018C00008205B0863F347128DF80820D6E9003240
:1018D0001344009323F01F035344A3EB0903013087
:1018E00023F01F036946C0B20393FFF753FFBEE71F
:1018F0006FF01504204605B0BDE8F08F00ED00E064
:101900000522044BC3F89420BFF34F8FBFF36F8FB2
:10191000704700BF00ED00E0BFF35F8F0022024B75
:10192000C3F89420704700BF00ED00E010B5034CF1
:101930002278FFF741FF207010BD00BFE81600209D
:10194000F0B54149414CD1F890302568C3F30723E5
:101950009D4287B075D80020FFF7DEFF3C4BC1F8F1
:10196000C030854216D13B4C01A82570FFF746FCDC
:1019700000250646384FAE4213D100202378324965
:10198000D1F89020C2F30722934254DBFFF7B8FF4F
:1019900000202FE0616801EB0011FFF7E1FE01304C
:1019A000DFE70199280101EB0513DA683A40B2F547
:1019B000001F21D0B2F5800F2BD0B2F5801F38D197
:1019C0005A689B680958013B22F01F00034401201C
:1019D000844623F01F0340EA4C10CDE902218DF824
:1019E000100002A920780593FFF7D4FE00281DDA25
:1019F0006FF0150007B0F0BD5A689B680958013BAD
:101A000022F01F0003444FF0020C012023F01F03BB
:101A1000E1E75A689B680958013B22F01F00034424
:101A20004FF0000C022023F01F03D4E7237801338A
:101A3000237001359FE7C1F89830C1F8A000013349
:101A40009EE74FF0FF30D5E700ED00E0705000005A
:101A5000AAFF4400E81600200000F0FF08B5284A5D
:101A6000284B1A6000F066F841F6F8732648D0F863
:101A70002416C1F3080203EA5133142182F4807260
:101A8000883201FB0233214A590ADB0548BF013184
:101A9000C2F80419D0F820364FF47A60C3F3080175
:101AA000C3F30943434342F6041081F4807101F209
:101AB000172100FB01334FF47A701B0AB3FBF0F1DE
:101AC00000FB1133B3F5FA7F28BF01310E4BC2F88A
:101AD0001C17D3F840131C290CD1D3F84433012B25
:101AE00008D13423C2F82436D2F83C3623F400233C
:101AF000C2F83C360122054B0020C3F8002608BD81
:101B00000020A1071C00002000C0FF0000001250B0
:101B100048B1054B054A1B68B3FBF2F35843044B2D
:101B200043F00103184770471C00002040420F009B
:101B3000004E00000122024BC3F80424704700BF8E
:101B4000002008E00022024BC3F80424704700BFC5
:101B5000002008E0084B70B5C31A0D4607499B10DA
:101B6000044659434022064802F041FB2B460146F9
:101B70002046BDE87040184708150020B76DDBB659
:101B800008450000402373B50B4C0093041B0B4623
:101B90000D460A49A41061430646094A094802F065
:101BA00052FB011E05DA30462B4602B0BDE87040FC
:101BB000184702B070BD00BF08150020B76DDBB636
:101BC000B74200000845000010B5EFF31184202350
:101BD00083F31288BFF36F8F074A136823F0020163
:101BE000DB07116002D4012002F017FC84F3118896
:101BF000BFF36F8F10BD00BF5815002070B50022D5
:101C00000121044640F20510FFF72CFD0F4800F0BB
:101C1000F9FB0F4B984215D100F004FC26690D49E1
:101C2000304602F049F900280BDB012535642469B0
:101C3000084904F11C0002F03FF9002801DB0020F4
:101C4000E56470BD6FF00400FBE700BFD542000003
:101C50000000AD0B985000000C22104B014602FB17
:101C60000033002030B4D3E90E529863EFF31180B3
:101C7000202484F31288BFF36F8F1C6C04F0C0041F
:101C800044F002041C6480F31188BFF36F8F1DB110
:101C90002B4630BC0248184730BC7047081500205E
:101CA0000845000010B4EFF31182202383F312885B
:101CB000BFF36F8F1648016841F002040460C80743
:101CC00007D482F31188BFF36F8F012010BC00F09E
:101CD000C5BB1049D1F80C14C903F2D5EFF311803C
:101CE00083F31288BFF36F8F0B490B6C03F0C003B3
:101CF00043F002030B6480F31188BFF36F8F82F30C
:101D00001188BFF36F8F002010BCFFF7A5BF00BF85
:101D10005815002000E01050081500202DE9F84368
:101D2000012207463249D1E8EF3FC1E8E02F002801
:101D3000F9D133B92F4930484B60CB608A6002F04B
:101D4000CEF87B1E012B2AD8012F06D12B4BD3F8BE
:101D5000503403F00303012B21D002F0AEFB054603
:101D6000F8B9274B1B78E3B104220646234BC3F88E
:101D700008234FF00108214CDFF88890D4F84C2458
:101D8000D4F84C34D20315D503F00303012B01D052
:101D9000012F0FD135B386F31188BFF36F8FBDE8E4
:101DA000F883EFF31186202383F31288BFF36F8F3C
:101DB0000125DEE7304602F0B9F9D4F8403413F0DB
:101DC000FF03DBD1D4F80821002AD7D0C4F80831AA
:101DD000D4F808312023C4F84084C9F8A031C4F8ED
:101DE0001080CBE70422054BC3F80423D7E700BFDC
:101DF00004150020F41400202415002000E01050E9
:101E0000EA16002000E100E00023024A0020C1E9B8
:101E1000002370470050160000487047B45000007F
:101E2000024B0B6001231360704700BFBC500000E1
:101E3000024B034A0020C3F80C25704700B0045041
:101E40008000008070B5164D1446A84225D8C0F514
:101E5000B21303F580539A421FD8C2B140F2011366
:101E6000104DC5F80035A1B102F0A1F9BFF35F8FA5
:101E7000D5F81834DA0705D4230703D00123AB6063
:101E8000BFF35F8F4FF48072064BC3F8002500202C
:101E900070BDFF2102F096F9E8E76FF01500F7E753
:101EA000FF4F160000B0045010461A46084B10B5FC
:101EB000994209D8C1F5B21404F58054A24203D85E
:101EC00002F075F9002010BD6FF01500FBE700BFB0
:101ED000FF4F160073B514461D46684600F0CCFB54
:101EE000009BA342019BAB4114D30B4AD2E9006192
:101EF000A41B24F01F0365EB010064099B1941EB4F
:101F0000000144EAC060C2E9003102B0BDE870409F
:101F100000F056BE02B070BD8000002010B5002257
:101F20000121E420FFF79EFB124A0020D2F8183767
:101F300023F44033C2F8183700F0D0FB0E4B0446B0
:101F4000984208D101200D4900F056FCA04205D06E
:101F50000B4B98420AD04FF0FF3010BD6722094B5F
:101F600002201A60FFF7DAFE0020F6E76FF00B00A0
:101F7000F3E700BF00200E500000AD0B180000205A
:101F80000200AD0B5C15002007B5684600F074FB3D
:101F90000098074AD2E90032C01A019B4FEA50105C
:101FA00063EB020340EAC36003B05DF804FB00BFCB
:101FB000800000207FB5431C18BF20EAE07502A80E
:101FC00008BF6FF0004500F057FB02990E4B202030
:101FD000D3E900268C1A039961EB06032146C5FB61
:101FE0000013402973F1000436BF014621F01F01A0
:101FF000002352184FF0010146EB03030091034800
:1020000000F05EFC04B070BD8000002010000020D5
:1020100030B5816885B0103921F00F04054602F013
:102020001EF810220146684602F0CCF810226846DD
:10203000064902F0BCF810236A462146284601F002
:10204000DAFF003818BF012005B030BD0251000092
:1020500030B50D46816887B0102302AA10390446B6
:1020600001F0B4FF002802DA012007B030BD1022D1
:10207000204602A902F085F900283AD110221E4913
:1020800002A802F084F800280CBF012302232B7061
:10209000204602F062F9012301460DF107022046B5
:1020A00001F094FF0028DFDB9DF80730204603F0A5
:1020B0000F021B096A702B7101220DF1070102F05A
:1020C00060F910B96B78042B03D901236B700023DE
:1020D0002B71A2682046203A22F00F02103AA91C68
:1020E00002F062F90028BFD12046E91C02F078F91D
:1020F000BBE70323CBE700BF025100007FB5264DAD
:102100004400694655F8240002F070F9002835D1E2
:10211000013455F8240002A902F068F901282BD1F6
:1021200003238DF808308DF80B3000249DF8005003
:102130009DF80860194A2946107802F014F918B37E
:102140003146507802F00FF9F0B19378042B03D0A8
:102150009DF80310994217D1D378042B03D09DF832
:102160000B10994210D11379042B09D15079831E99
:10217000022B03D804B070BD0028D6D0FF20F9E7A9
:102180009DF802109942F1D00134032C02F10602AD
:10219000D1D10120EEE700BFC4500000B3510000D0
:1021A000064BD3F840231C2A05D1D3F84403431E21
:1021B0005842584170470020704700BF00C0FF00E0
:1021C00003689A070CD50368DB070DD50922074B76
:1021D000C3F80C250F22C3F8042501221A60FEE77C
:1021E000034B0360EF3B0360704700BF008010505B
:1021F000F000FA50012208B5334B3448C3F80028E8
:10220000FFF7DEFF0830FFF7DBFF0830FFF7D8FFEE
:102210000830FFF7D5FF00F5F470FFF7D1FF2C4A27
:10222000D2F88C3043F44063C2F88C300022D300E3
:1022300003F57F0303F54043D3F8001401310AD0BE
:10224000D3F8001439B1D3F800140132D3F80434B0
:10225000402A0B60EBD11C4BD3F840247AB3FFF734
:102260009FFF48B11B4BD3F834231B4B9A429EBFB0
:10227000154B1A4AC3F84026FFF792FF18B1184BC6
:10228000184AC3F8AC27FFF78BFF48B134220E4B36
:10229000C3F82426D3F83C2622F40022C3F83C26B7
:1022A0000323114A0A49C2F81835D1F88C3043F497
:1022B0004063C1F88C300023C2F8A03508BDC822A5
:1022C000C3F84024CBE700BF0000125000C50D50FA
:1022D00000ED00E000C0FF00001D0A1840E0A91E4C
:1022E00000A0085078000A0400B0045030B504681B
:1022F000ACB1B4FA84F30122C3F11F03DBB29A40FC
:1023000024EA0202D0E8EF5FA54204D1C0E8EC2F36
:10231000BCF1000FF6D1EAD102480B7030BD024883
:10232000FCE700BF0000AD0B0200AD0BF7B50646A1
:1023300048B3012825D104224FF4807371202F491E
:102340000024C1F80803012002F1A04203F1A043D8
:1023500003F5871302F5871210601C601B68284B79
:10236000D3F840331C2B13D0864201D10DF1070462
:10237000002342F21075214F8DF8073066B1012E0F
:1023800028D003B0F0BD14224FF484730420D6E7A4
:10239000012EEDD1CE60E9E7D7F84C3403F4803359
:1023A0003CB9002BEDD0012002F035F8013DF3D10E
:1023B000E7E7D7F84C2402F003022270002BE0D0AC
:1023C0009DF80730002BDCD1012002F024F8013DFC
:1023D000D4D1D6E7D7F80C3403F480333CB9002BC2
:1023E000CFD0012002F017F8013DF3D1C9E7002B4F
:1023F0000CBF012300232370E2D1C2E700E010509C
:1024000000C0FF00044B1A7922B9012218601A712A
:102410000248704702487047601500200000AD0B6D
:102420000C00AD0B08B50A4B1B6843B140F2051018
:10243000FFF70AF918B940F20510FFF7E3F8002298
:10244000044BC3F840240122034B1A7008BD00BF9F
:102450006015002000E01050E916002010B510B102
:10246000012845D010BD324BD3F84C14D3F84C247E
:10247000C80324D502F00303012B04D013B10020BC
:10248000FFF754FF00232A4A0420C2F840341022E8
:102490004FF48473002103F1A04303F587131960FF
:1024A0001C68012402F1A04202F587121460214A3F
:1024B0001268002A36D01E4BC3F80403D2E7D3F8C3
:1024C0004824D107DED5D3F850249207D7D4194A2F
:1024D00012681AB10422C3F80423C3E7D3F8082111
:1024E000002AFBD00022C3F80821D3F80831B9E74D
:1024F00000220F4BC3F81021D3F81011C3F8182194
:10250000D3F81811C3F81421D3F814210A4AD2F8C9
:1025100040231C2A04D000224FF480737120B9E7B5
:102520009860F8E71A68002AFCD019601B6899E7E0
:1025300000E010506015002000C0FF0070B50025BD
:102540001D4C1E4ED4F80C3303B970BDB3FA83F39F
:10255000C3F11F039A0002F5807292B202F1A04209
:1025600002F58712156012680122D8B202FA03F34D
:10257000DBB2102BC4F8083311D0402B1AD0042B37
:1025800015D1D4F84C14D4F84C1489070FD1C4F8E1
:102590004024C4F804332261D4F80C33D4E77571B5
:1025A000C4F81451D4F814312023C4F80433336828
:1025B0009847F1E77571FAE700E0105060150020C8
:1025C00070B5002367240126027A94FAA4F1B1FAC7
:1025D00081F1914203F1010518D100210C2412016F
:1025E00002F1A04202F56222C2F82C150A4ADBB2BF
:1025F00004FB03230168D960416819610121007A55
:102600001875936881400B43936070BD06FA01F121
:102610002B4624EA0104D8E720000020074B027A69
:10262000D3F8101521F001010A43C3F81025026800
:10263000C3F8A4264268C3F8AC26704700200E50A9
:10264000012303FA00F010F0670F0AD0064B5B6815
:10265000DB4303F067030342044B054818BF1846E9
:1026600070470448704700BF200000200000AD0BF9
:102670000400AD0B0800AD0B002300222DE9F0484B
:10268000C0E90023114BD3F810359B071CD5EFF39D
:102690001181202383F31288BFF36F8F4FF0FF3532
:1026A0006FF040440A4ED6E900BC5D4574EB0C0760
:1026B000F9D3CCF31303C0E900B381F31188BFF35E
:1026C0006F8F0448BDE8F0880348FBE700200E50F8
:1026D00040270E500000AD0B0100AD0BF0B53B4D97
:1026E00085B02C78002C6DD1394A01AB07CA83E83C
:1026F000070038491846D1F8102522F00202C1F827
:102700001025FFF78BFF0723672202F00101214408
:10271000013BCCB24FEA5202F7D1052C54D11A46F4
:1027200001272A48002467265FFA82FC96FAA6F160
:102730005FFA84FEE645B1FA81F13DD30132052A04
:10274000017500F10C00EDD10120002422499A0806
:1027500000FA02F212F0670F1CBF5C505A580433A3
:10276000302BF4D1E420FEF74DFF1A4B1B49D3F870
:10277000102503F5C07322F00202C3F8902340F63F
:10278000FF72C3F8A82100221A60A3F580700433F9
:102790008B420260F8D101240E4B114A1C66114B8A
:1027A0005D201B68B3FBF2F358430F4B234398475C
:1027B0000E482C7005B0F0BD07FA01F126EA0106BB
:1027C0000134B3E70A48F5E70A48F3E720000020A0
:1027D000F04D000000200E5000210E50B0210E5090
:1027E00040420F001C000020104E00000000AD0B06
:1027F0000C00AD0B0100AD0B73B52A4C05466368A8
:102800000E4603F0010304F1140101A80193FFF740
:102810006DFD254B98423DD100233370636823F052
:1028200001036360A36843F00103A3601F4BD3F867
:102830001025960732D4D3F8102542F00202C3F8CF
:102840001025C5B1D3F8482712F0010202BFD3F812
:10285000481741F00101C3F84817144BD3F840174B
:10286000D3F844174C00F9D42AB9D3F8482722F0FA
:102870000102C3F848270E4B0E4A1B68B3FBF2F364
:102880000A4A03EB43135BB1D2F84017D2F844175E
:10289000490001D402B070BD013BF4E70648F9E7F6
:1028A0000648F7E7200000200000AD0B00200E5086
:1028B0001C00002040420F000C00AD0B0700AD0BC8
:1028C0002DE9F0410446007A1D46FFF7B9FE1A4B88
:1028D0001746984206469DF8188029D12046FFF7F2
:1028E0006FFEEFF31180202383F31288BFF36F8F05
:1028F000227A124B9200134400221A60217AC5F307
:102900001305090101F1A04101F562211B68C1F81D
:102910002075C1F8245580F31188BFF36F8FB8F18B
:10292000000F05D00123227A9340054AC2F82433D0
:102930003046BDE8F08100BF0000AD0B00210E5015
:1029400000200E50F7B5254A002053689268DB43FB
:1029500003F0670313401C46012607460CBB012702
:102960001F4B1E4DD3F820630640287D07FA00F365
:1029700033420FD0E96869B10201D5F810C002F105
:10298000A04202F56222D2F82435D2F82025CDF8F3
:1029900000C088470134052C05F10C05E5D103B0D2
:1029A000F0BD94FAA4F5B5FA85F5AA0002F5807198
:1029B000920806FA02F213420BD001F1A04101F590
:1029C0006221D1F800C0BCF1000F02D00F6009688D
:1029D000104306FA05F524EA0504BFE720000020AD
:1029E00000200E5010B5184BD3F80443E1040AD56B
:1029F000D3F830213AB10022C3F83021D3F8303176
:102A0000124B1B689847A2040BD50F4BD3F8342107
:102A10003AB10020C3F83401D3F834310C4B1B68B1
:102A2000984763040ED5084BD3F8382152B10022E1
:102A3000C3F83821D3F83831054B0120BDE81040E8
:102A40001B68184710BD00BF00E010506C15002037
:102A50006815002038B5094B53F82040013053F871
:102A60002050A54200D838BD636823B1204601F04C
:102A700007FD0834F5E723689847FAE7CC500000D3
:102A8000012208B5094B03201A70FFF7E3FF01F09C
:102A900029FD01F011FD0420FFF7DCFFFDF7EEFC3E
:102AA000034A137B23F00103137308BDEA160020C9
:102AB0007015002008B50348034A0021121A01F0DE
:102AC000F7FC08BD80000020EC16002008B50020AF
:102AD000FFF7C0FF154B83F308880025E023144C53
:102AE00084F82230E57725766576A576636A43F427
:102AF000E023636284F82350FEF7F4FCFEF7FCFD4C
:102B00004FF0FF33A362E362FEF71AFFFEF71CFEED
:102B100001F090FC0120FFF79DFF0220FFF79AFFD4
:102B20002B462A4629460348FEF7CEFDF01E00201C
:102B300000ED00E0812A0000074808B5074A08496F
:102B4000121A01F0B7FCBDE808400648064A0749DA
:102B5000121A01F0AFBC00BF00000020800000206E
:102B6000C85100000000002000000020C8510000F3
:102B7000024B1868984208BF00207047740000207C
:102B8000034B1B680BB9FFF7FFB90020704700BF6C
:102B9000E415002048B1094B5B68984205D00368F2
:102BA0001BB1DA68C1680A44DA60D0E90032136008
:102BB0005A600023C0E90033704700BF7400002052
:102BC0002DE9F041EFF31185202383F31288BFF341
:102BD0006F8F1F4E4FF000083060FFF7C9FF1D4F89
:102BE0003268D7E9003120B1C468944213DDA41AD9
:102BF000C4600024D31841EBE271C7E900313460AE
:102C000001F061FC2146FFF7D5F985F31188BFF388
:102C10006F8FBDE8F081E31841EBE471C0F80C80E0
:102C2000C7E90031FFF7B6FF85F31188BFF36F8F57
:102C300083689847EFF31185202383F31288BFF34D
:102C40006F8F33681B1B3360FFF792FFC8E700BF2D
:102C5000E415002088000020704708B9086070471C
:102C60006FF0150070470020704770472DE9F7435B
:102C70000E4617469946044628B94FF0FF3840469D
:102C800003B0BDE8F0830029F7D0002AF5D0CB6867
:102C90000D8938461D44042329460DEB030201F03B
:102CA00095F980460028E8D146F60812BDF80410D0
:102CB0007389914225D1BDF806109942DDD10423D4
:102CC00038460DEB0302294401F080F90028D4D1E5
:102CD00046F60713BDF804209A42CED1C4E9006736
:102CE0009DF82830A4F80890A3727389BDF80620D7
:102CF0002B44E360738913442B44043563612561DD
:102D0000BDE7002BE4D0B8E72DE9F3410E461746A6
:102D10001D46044620B94FF0FF3002B0BDE8F081F7
:102D20000368002BF7D04368002BF4D04FF6FF78F0
:102D3000D4E904239A4216D223685B8923B1E3685D
:102D4000934204BF043323610423216960680DEBBF
:102D5000030201F03BF90028DDD1A37A2BB1D4E9BD
:102D600003329A4201D30120D7E72389BDF8061028
:102D7000434501F1040203D0BDF804C09C450BD1CA
:102D800015B1BDF804302B802369043333603980DA
:102D9000236913442361C0E7236913442361C7E710
:102DA00048B103683BB143682BB1C068884294BF07
:102DB0000020012070474FF0FF30704773B50C467C
:102DC000064611460223204601AA00F05AF905469C
:102DD000E8B9019A1F2A0ED9A2F12001304620221B
:102DE0002368194401F0E3F92368019A134423602E
:102DF000284602B070BD0146C2F12002304601F003
:102E0000E1F9019A2168C2F120003044EAE76FF04D
:102E10000205EDE701F0BBB94FF440735843503061
:102E20007047084601F099BAF7B5044600200D46F0
:102E30001746FDF753FB6946C0B2FEF7E5F930B11E
:102E40000125009801F0C1F8284603B0F0BD2C23FD
:102E500003FB0544E368268900981E440423314699
:102E60000DEB030201F0B2F805460028E8D146F662
:102E70000813BDF8042064899A42009819D1BDF85E
:102E800006309C4201D00325DBE70423A1190DEB9A
:102E9000030201F09BF80028D2D146F60713BDF8D3
:102EA00004209A42EFD1BDF8061021443144396024
:102EB000C7E7002CF1D0E6E738B500230D460246FF
:102EC0001946044600F084F8034648B9012120461B
:102ED00004F12C0200F07CF810B1002D08BF002096
:102EE00038BD37B54FF480750446426A01A9022007
:102EF000019501F0DDF858B9019B0520226DA36210
:102F000001A9019501F0D4F8054628B1092500E092
:102F10000125284603B030BD019B206A636501F09E
:102F200097F8E065F5E70123036003F101234360AF
:102F30000023C0E9023370474379012B07D10368AE
:102F4000012B04D10079431E58425841704700209C
:102F50007047F0B5D0F828C0BCF5807F36D8466DF4
:102F6000B6F5807F32D800210B460A460D460C4646
:102F7000624507D3B34205D3624527D19B1B584214
:102F80005841F0BDAC420CD1476A07EBC2077F68DD
:102F900001323C44076D07EBC3077F6801333D44B2
:102FA000E6E709D2476A022907EBC2077F683C447B
:102FB0000CD001210132DBE7076D012907EBC307C4
:102FC0007F683D4402D002210133D1E70020D8E7D9
:102FD00008B52C2303FB010020230021006A00F028
:102FE000F5FF003818BF012008BD70B50368CD1A81
:102FF000002D02DC6FF05F0070BD93F900601C785B
:10300000002E0ADB5C1C04601B7813600368C91A7D
:1030100013688B42EED80020EEE704F07F04013CF9
:10302000032C2BD8DFE804F0020A1421012DE1D093
:103030005B781360036802330360E7E7022DD9DD94
:10304000B3F801305BBA9BB2136003680333F3E754
:10305000032DCFDD9C785D782402DB7844EA0544BB
:103060002343136003680433E6E7042DC2DDD3F87D
:1030700001301BBA136003680533DDE76FF06300AE
:10308000BAE770B404680E1B002E07DD26789E4256
:1030900008D10134046070BCFFF7A7BF6FF05F0078
:1030A00070BC70476FF06100FAE738B5032304463F
:1030B000FFF7E7FF18B9136813B96FF0670038BD61
:1030C000013B136023681A78002AF6D1013323608C
:1030D000F5E72DE9F34190461F4601AA3023054646
:1030E0000E46FFF7CEFF0446F0B92B68F61A002E05
:1030F00034DD42461B78284642F8043B2E68019B8B
:103100001E4431460623FFF7BCFF044660B92B6816
:10311000D8F80420C8F808309918B142296007D1BE
:103120000C213846FDF720FD204602B0BDE8F081B5
:103130009B5C3A4642F8043B2B68314601332846F3
:103140002B60FFF752FF60B92B687A68BB601344AD
:10315000B34218BF6FF065042B60E5E76FF05F04C2
:10316000E2E70446E0E7F0B500240646204665B2F3
:10317000AB4200DCF0BD51F8247052F824503D44BD
:103180000544AF4200F0010018BF002046F824506B
:1031900088BF40F001000134E9E7002300EB810122
:1031A000884200D3704751F8042D43EA52030B6064
:1031B000D307F5E770B503680546DB07144604D46A
:1031C000BDE870401146FFF7E8BF13460A460146C6
:1031D000FFF7C9FF064621462846FFF7DEFF46B146
:1031E00004F18044013C55F8243043F0004345F895
:1031F000243070BD4FF0000C2DE9F74F6546644652
:103200004FFA8CF94B4516DC4FF0FF364FF00008B3
:1032100006EB43060196019F53FA88FE4FFA8EFE95
:10322000BE455FFA88F628DB00EBC30040F8044C8B
:1032300003B0BDE8F08F4FF0000EF04602EB8C0AB1
:1032400051F82E705AF804694FF0000BA6FB07677F
:1032500036196F4128BF4FF0010B0EF1010E3446B5
:103260004FFA8EF64E453D46D844E9DD40F82C40F5
:1032700045463C460CF1010CC2E7A9460025013643
:1032800076B202EB8E0A77B2BB4205DC40F82E40E4
:1032900008F101084C46BEE76FF00307774351F889
:1032A00026C05AF807704FF0000BA7FB0C7C3F19A3
:1032B0005CEB090C28BF4FF0010BE1463C465D4436
:1032C0000136E0E7002310B51C465AB2914200DCFB
:1032D00010BD40F823400133F7E700231A4610B52C
:1032E0005CB2A14203DCB2FA82F0400910BD50F892
:1032F000234001332243F3E701234A1150F822000F
:1033000001F01F018B40184070474B1E10B55BB297
:10331000041D1A0603D45A1E54F8221071B1013349
:103320005BB283B103F18042013A50F822100022CF
:1033300031B9013B02EB431210B210BD1346E8E76E
:1033400049080132F4E71846F7E7002310B55CB2EC
:10335000A24200DC10BD51F8234040F82340013365
:10336000F5E710B5013A52B2130601D5002010BDA1
:1033700050F8224051F822309C4205D802F1FF3229
:10338000F2D24FF0FF30F2E70120F0E7002330B532
:10339000013A52B2140603D5181E18BF012030BDE1
:1033A00050F8224051F82250013A6C402343F1E793
:1033B000F0B5002406469C46204665B2654500DB14
:1033C000F0BD51F8247052F824303D1AED1AAF4286
:1033D00000F0010018BF002046F8245038BF40F02C
:1033E00001000134E9E770B59DF910601D463346D0
:1033F0000446FFF7B8FE30B9324621462846FFF7AB
:10340000B0FF012807D033462A4621462046BDE8B2
:103410007040FFF7CDBF70BD70B59DF910601D46BF
:1034200033460446FFF7C4FF38B133462A462146E7
:103430002046BDE87040FFF796BE70BD2DE9F04F05
:103440001D46A5B014ABCDE90231019029461046C6
:103450001746FFF75AFFC0EB851424B22146002C13
:10346000B8BF04F11F01634203F01F0341F347118A
:1034700004F01F0604A858BF5E42FFF723FF002E8A
:103480004FEA81002DDD002204AB18441346C6F13B
:10349000200E9D421AD8012604AB03EB850300934E
:1034A0006F1E24AB4FEA45084FEA850903EB8707F7
:1034B000002C53DA24AB03EB86062A4656F8881C08
:1034C0000198FFF742FF25B0BDE8F08F57F823C001
:1034D00001330CFA06F10A4340F8042B2CFA0EF2E1
:1034E000D7E704AB2A4639461844FFF72EFFD2E748
:1034F0005AF8883C0CF1010C53F8202024AB03EB64
:10350000800353F8803C0B44D31A34BF4FF0010BB7
:103510004FF0000B9A4218BF59465EF8882C42F8CB
:1035200020304FFA8CF04045E2DB731A5E422946A8
:1035300004A85E41FFF731FE09F190036B4453F894
:10354000802C57F8803C294643EAC2730098013C1E
:1035500047F8803C24B2FFF720FEA9E74FF0000CAB
:1035600024ABC6F1010E614603EB860A03EB8E0E17
:10357000D7E730B504461D4691B068469DF95030F6
:10358000FFF738FE2A4669462046FFF757FF11B07D
:1035900030BD30B505461C4691B0684693F9003001
:1035A000FFF728FE69462846D4F8AC30984711B09A
:1035B00030BD13460A46FFF7ECBF2DE9F04793F9FB
:1035C00000600446894692B03146104615461F46B3
:1035D000FFF783FE002840F091803A46494602A852
:1035E000FFF7E7FF3B46214602AA0AA8FFF7D1FFF3
:1035F00002A908463A46FFF7DCFF3B462A46494601
:103600004846FFF7C6FF07F104083A462946284610
:10361000FFF7CFFF43462A46214620460096FFF794
:10362000E2FE43462A46294628460096FFF7DBFE7F
:1036300043462A46214628460096FFF7EDFE3B46C4
:103640002A4621462046FFF7A4FF4346224621464C
:1036500028460096FFF7C7FE43462A4621462046E5
:103660000096FFF7C0FE2368DB074AD53346424683
:1036700021462046FFF777FD824631462046FFF778
:103680008CFD06F18043013B54F8232042EACA72C4
:1036900044F823203A4621462846FFF78AFF43464E
:1036A000294628460AAA0096FFF7B6FE4346294651
:1036B00028460AAA0096FFF7AFFE0AA90846434625
:1036C0002A460096FFF7A8FE3B46214620460AAA56
:1036D000FFF75FFF02AA4346104621460096FFF718
:1036E0009BFE324629462046FFF72FFE49462846D4
:1036F000FFF72BFE484602A9FFF727FE12B0BDE8F0
:10370000F08731462046FFF748FDC3E72DE9F04139
:1037100015468AB004460E461C22002103A800F07C
:1037200051FD032395F900802A46314620462F1D7E
:103730000293FFF73EFF3B462146204602AACDF802
:103740000080FFF769FE2B46324621462046FFF7F0
:1037500020FF3B4621462046CDF8008005F184023B
:10376000FFF741FE0AB0BDE8F081F0B50F4606460E
:10377000A1B01946384615461C46FFF7AEFD28B1E4
:10378000304621B0BDE8F040FFF79CBD22463946E7
:103790006846FFF7DAFD294608A8FFF7D6FD10A80E
:1037A0002146FFF78FFD012318A81093FFF78AFD2C
:1037B0002246684608A9FFF7D4FD30B922463046B4
:1037C00010A9FFF7C2FD21B0F0BD009BDA0709D4B4
:1037D00021466846FFF7E1FC2246294610A8FFF77C
:1037E000E9FCE5E7089BDB0707D4214608A8FFF7BB
:1037F000D4FC2246294618A8F1E7002823461CDD00
:1038000008AA69466846FFF7D3FD21466846FFF7D8
:10381000C4FC224618A910A8FFF7A3FD002805DA6A
:1038200010A923462A460846FFF79DFC10A9234607
:10383000084618AAFFF7BCFDCEE76A4608A8FFF7BE
:10384000B7FD214608A8FFF7A8FC224610A918A832
:10385000FFF787FD002805DA18A923462A460846FF
:10386000FFF781FC18A92346084610AAFFF7A0FD20
:10387000BFE7F0B515461C4607460E4689B01A4606
:1038800029466846FFF795FE23466A46394638467C
:10389000FFF77FFE23462A4669466846FFF779FE12
:1038A00023466A4631463046FFF773FE09B0F0BD45
:1038B0002DE9F0478AB0DDF848A014465546804609
:1038C0001F46894615F9046B02462B46214602A87D
:1038D0000096FFF7A1FD02A952460846FFF769FED0
:1038E00053464146404602AAFFF753FE534621463F
:1038F000204602AAFFF74DFE2B464A463946384677
:103900000096FFF789FD5246394602A8FFF751FE9F
:1039100002A92B46424608460096FFF77DFD02A904
:103920002B46224608460096FFF776FD2B46424678
:10393000214620460096FFF76FFD53462246494632
:103940004846FFF726FE2B464146204602AA00962F
:10395000FFF762FD5346224639463846FFF719FE07
:103960002B464A46394638460096FFF755FD324603
:10397000204602A9FFF7E9FC0AB0BDE8F087F8B5D8
:103980000E46D11C48BF911D144641F38701FFF735
:1039900099FC0025671E6AB2A24205F1010500DB11
:1039A000F8BDBB1A23F00301B25C03F00303DB0094
:1039B0009A40435813434350EDE72DE9F0471F4623
:1039C000B3F90230064613F11F0448BF03F13E0469
:1039D0006511DC1D48BF03F10E04E410944228BFBA
:1039E000144688464FFA85F94946FFF76BFC224694
:1039F00041463046FFF7C3FFB7F90220E300B2EBC0
:103A0000C40F20D200219B1A06EB8504C3F12005C8
:103A1000A6420FD324374A4631463846FFF7A1FC69
:103A2000012810D04B463A4631463046BDE8F047B3
:103A3000FFF7BEBC54F8040D20FA03F20A432260DB
:103A400000FA05F1E4E7BDE8F0872DE9F04FFDB09D
:103A5000869D1F46B5F90230814613F11F0648BF07
:103A600003F13E06002346F34716079206F1FF3B9B
:103A70007CAA95F9004002EB8B0242F8C03C42F868
:103A8000A03C049195F9012001460DF190086CA825
:103A900048F82B30FFF773FFA30095F90120069338
:103AA0006CAB03EB8403184609EB02010393FFF7A9
:103AB00066FF394695F901204CA8FFF760FF95F99C
:103AC000012054A8B918FFF75AFF21464CA8FFF768
:103AD00004FC18B100207DB0BDE8F08F214654A849
:103AE000FFF7FBFB02900028F4D105F1240A3246CF
:103AF00050464CA9FFF735FC0128EBD13246504621
:103B000054A9FFF72EFC01280590E3D13346524615
:103B100054A91CA8FFF729FE029B0CAF47F82B30D5
:103B200038462B46079A0499FFF747FF394638462F
:103B300053461CAA0096FFF71CFD0DF5B8795346B5
:103B40001CAA4CA914A80096FFF713FD484622466C
:103B50006CA9FFF7FAFBA30009EB030B58462246BA
:103B60000399FFF7F2FB05F144031946224634A8F6
:103B70000393FFF7EAFB039BA100591822463CA8D8
:103B8000FFF7E3FB49462B1D34AA1CA800940493BD
:103B9000FFF742FC5B464A463CA934A80095FFF774
:103BA00087FE1CA9084623462A1DFFF7DEFD1CAA36
:103BB000594648462B46FFF75CFE029B3146089368
:103BC000039B384609936CABCDE90A39FFF79DFB9F
:103BD0003146814614A8FFF798FB8145B8BF81465E
:103BE0001FFA89F909F1FF3109B238460291FFF74E
:103BF00083FB0299074614A8FFF77EFB003818BF25
:103C00000120003F18BF01270DF1200B47EA4007B4
:103C10005BF82770224639464046FFF796FBA30023
:103C2000F91822462CA8FFF790FB21461CA8FFF7A5
:103C300049FB059BA9F102091C930FFA89F9B9F117
:103C4000000F21DA1CA908462346049AFFF78DFDD0
:103C50002B4640461CAA2CA9FFF70BFE32464146D4
:103C60005046FFF77EFB012805D0334652464146B9
:103C70004046FFF79DFB224640464CA9FFF786FBD6
:103C8000B0FA80F0400926E72B461CAA4046D5F83A
:103C9000A4702CA9B84749460CA8FFF72DFB49464C
:103CA000074614A8FFF728FB003818BF0120003F83
:103CB00018BF012708AB47EA400753F8277027B31E
:103CC0002246394634A8FFF740FB069B2246F918E6
:103CD0003CA8FFF73AFB2B461CAA3CA934A8FFF7E7
:103CE000C8FD4146049B34AA44A80094FFF794FB06
:103CF00042462CAB3CA934A80095FFF7D9FD1CA97E
:103D00002B46084644AAFFF744FC09F1FF3994E723
:103D1000F8B50C4610B1F9B10AB90120F8BD002779
:103D20008D1800F12806836E5A1C826614F8011B58
:103D300003443F2A83F828100BD93146FCF7E4FFEF
:103D4000D0E9083213F5007342F10002C0E90832ED
:103D50008766A542E7D1E0E70846DFE7F8B50C46FD
:103D60000546002854D0002953D08B6ED1E9082194
:103D7000D800121841F10001C4E908218022581C22
:103D800038282344A0664FF0000783F8282004F168
:103D900028060AD9C0F140023946304400F03BF809
:103DA00031462046FCF7B0FFA766A06E0021C0F1A7
:103DB0003802304400F02FF8236A31461ABA636A99
:103DC00062661A0A84F8633084F862201A0C1B0EAB
:103DD00084F86030204684F86120FCF795FF2B1DA5
:103DE000211F243551F8042F0433100E03F8080C5A
:103DF000100C03F8070C100A03F8060C03F8052C46
:103E0000AB42EFD120467022002100F004F80120DF
:103E1000F8BD0846FCE700F0D5B9038B13F00703A3
:103E200005D10368002B0CBF002003207047022B34
:103E300005D1408BB0FA80F0400980007047012B1B
:103E400005D10368002B0CBF00200520704700201F
:103E5000704710B50C4600B111B96FF0150010BDD8
:103E6000081D00F093F80028F9D1A368032BF6D9B8
:103E7000F3E72DE9F0410D4607461946281D904607
:103E80001E4600F094F8044638B1334642462946AF
:103E90003846A446BDE8F0416047BDE8F08110B463
:103EA000EFF31182202484F31288BFF36F8F4161F6
:103EB00010BC0121FDF794B838B50C46054658B141
:103EC00051B10B6843B14B6833B11C22002100F0A3
:103ED00079F900202C6138BD6FF01500FBE770B553
:103EE00005460E46FFF7B5FF041E14DBEFF3118203
:103EF000202383F31288BFF36F8F4FF6FF716B8B14
:103F00002C8B8B4204F0070407D182F31188BFF396
:103F10006F8F6FF00A04204670BD022C0CD1013364
:103F20006B8382F31188BFF36F8F002322463146E3
:103F30002846FFF79EFFEEE7062C14D8DFE804F0D2
:103F400004131313041A0400002333606B683BB995
:103F5000C5E90066ACB902212846FDF741F8DAE769
:103F60001E606E60F6E782F31188BFF36F8F6FF00B
:103F70000404D0E782F31188BFF36F8F6FF08504DC
:103F8000C9E782F31188BFF36F8FC4E7034658B1C6
:103F9000426802F00302012A03D0032A04D1026816
:103FA00012B10020986070476FF0150070474268AA
:103FB000034602F00302032A4FF00002816014BF9F
:103FC000104600685A60704770477047002930B447
:103FD000044618460BDBA5680844A84207D8E068E9
:103FE0006468214484682468A44630BC60476FF04C
:103FF000150030BC7047002930B4044618460BDB6E
:10400000A5680844A84207D8E06864682144846829
:104010006468A44630BC60476FF0150030BC704740
:104020000029034610B410460BDB9C680844A042EC
:1040300007D8D8685B68194483689B682BB110BCAB
:1040400018476FF0150010BC70476FF05700FAE783
:1040500008B5C0688368DB689847006808BD08B584
:10406000C0688368DB689847407908BD70B54C68C4
:104070000368A34201D2012070BD8A6822449342A2
:1040800001D30020F8E74E69D1E90325B54203D3F7
:104090006FF00B038B61F4E71B1B42F8353043686C
:1040A000086902EBC00253600B6901330B61E2E760
:1040B00037B50C46C0B201A91546FDF7A5F8002892
:1040C0000CDB019850B121462A46FDF7C3F804469F
:1040D0000198FFF77AFF204603B030BD6FF015045A
:1040E000F9E7012801D1EFF3058300F0BAB90146E1
:1040F0000068FFF7F6BF08B5FDF7C6F8BDE8084051
:1041000000F000B8704700210120FFF7EABF61B658
:1041100062B680F31188BFF36F8F7047EFF31180A1
:10412000202383F31288BFF36F8F704772B600238A
:1041300083F31188BFF36F8FBFF34F8F20BF80F3DE
:104140001188BFF36F8F62B6704740E800F313F435
:10415000803FD8B208BF6FF01500704730B50C68CB
:104160004B6885B00A894D890094013B24F01F04F7
:10417000234402F01F0242EA451223F01F0369465E
:104180008DF808200393FDF705FB05B030BD10B591
:104190005AB10139841810F8012B11F8013FA042DF
:1041A00001D09A42F7D0D01A10BD1046FCE710B5E6
:1041B000431E0A44914200D110BD11F8014B03F88F
:1041C000014FF7E70346C9B20244934200D170475A
:1041D00003F8011BF9E76FF0850070470C220369B3
:1041E000C9B201FB0233186C00F00700704770B5CC
:1041F000C9B20369EFF31185202484F31288BFF359
:104200006F8F0C2606FB0134246C14F0C00408D018
:10421000A24206D085F31188BFF36F8F4FF0FF30B5
:1042200070BD012206FB01331A6485F31188BFF3C8
:104230006F8F436803EBC1035B6898470020EFE78B
:104240008022FFF7D4BFF8B5069F0469C9B2EFF327
:104250001186202585F31288BFF36F8F0C2505FB8F
:104260000144256C05F0070CBCF1010F0CD127644B
:1042700086F31188BFF36F8FC4E90E23436853F8A8
:10428000313098470020F8BD05F0C005AF4286F3F5
:104290001188BFF36F8F0CBF6FF077004FF0FF30C6
:1042A000F1E713B580240094FFF7CDFF02B010BDF5
:1042B0006FF08500704710B41C240069CBB203FB7B
:1042C0000400002110BC10470020FEF7C7B80020F2
:1042D00000F0A3B8022804D0042804D10020FDF780
:1042E000BBBC0120FBE770472DE9F0470024836841
:1042F00086B0884691465B6902AA01A99847A24602
:104300002546029BAB4202D806B0BDE8F0870026E6
:10431000019F07EBC5077B6804933A680AEB060325
:10432000B24202D89A460135EBE749460394059319
:1043300003A8C0470028E7D0049B01361C44ECE7E3
:1043400008460021FDF77EBD084611461A4609B110
:10435000FDF778BD6FF0150070478068203820F0B9
:104360000F0020387047042809D0052803D1481EC3
:1043700018BF01207047431A584258417047012026
:10438000704738B515460C4661B15AB1FFF767FE64
:104390002146254411F8013B834203D1A942F9D1BA
:1043A000012038BD0020FCE738B50C46012311463A
:1043B00022460546FFF70AFE00280FDB01222146B0
:1043C0002846FFF7DEFF38B92378012B14BF0223FC
:1043D00001230020237038BD0323FAE70120FAE708
:1043E0008268203A22F00F02FFF7DEBF13B50C46B9
:1043F000C0B201A9FCF708FF50B921460198FDF7AA
:1044000027FE04460198FFF7E0FD204602B010BDEC
:104410000124FAE7004700F009B8FDF787BF08B5A7
:10442000FEF7E0FABDE80840FEF788B808B1FDF7EE
:104430006FBB7047704740B1C368587810F00100F7
:104440001EBF1878B0FA80F040097047EFF311836F
:10445000202383F31288BFF36F8FFEE708B5FFF7C1
:10446000F5FF10B5EFF31184202383F31288BFF317
:104470006F8FFFF7F3FF84F31188BFF36F8F10BDC9
:1044800010B5D0E9003433B90020E268537843F026
:104490000103537010BD204698470028F4D000282F
:1044A000B8BF4042FF28A8BFFF20E3681870ECE7C0
:1044B000FFF788BEFFF77BBE7047EFF3058000383B
:1044C00018BF0120704710B5FEF752FB0446FEF7F7
:1044D00057FB24B1E368181A20EAE07010BD6FF0B2
:1044E0000040FBE7704700005D1A0000000000007C
:1044F000FD1B0000084500001D1F0000000000001B
:10450000311E0000204500008D510000A450000025
:10451000C84D00007C0000200815002000000000AD
:104520009A51000000000000B04D00007E00002005
:104530000000000000000000000000000741000033
:1045400000000000074100000000000007410000DB
:1045500000000000074100000000000007410000CB
:1045600000000000074100000000000007410000BB
:1045700000000000074100000000000007410000AB
:10458000000000000741000000000000074100009B
:10459000000000000741000000000000074100008B
:1045A000000000000741000000000000074100007B
:1045B000000000000741000000000000074100006B
:1045C000000000000741000000000000074100005B
:1045D000000000000741000000000000074100004B
:1045E000000000000741000000000000074100003B
:1045F000000000000741000000000000074100002B
:10460000000000000741000000000000074100001A
:10461000000000000741000000000000074100000A
:1046200000000000074100000000000007410000FA
:1046300000000000074100000000000007410000EA
:1046400000000000074100000000000007410000DA
:1046500000000000074100000000000007410000CA
:1046600000000000074100000000000007410000BA
:1046700000000000074100000000000007410000AA
:10468000000000000741000000000000074100009A
:10469000000000000741000000000000074100008A
:1046A000000000000741000000000000074100007A
:1046B000000000000741000000000000074100006A
:1046C000000000000741000000000000074100005A
:1046D000000000000741000000000000074100004A
:1046E000000000000741000000000000074100003A
:1046F000000000000741000000000000074100002A
:104700000000000007410000000000000741000019
:104710000000000007410000000000000741000009
:1047200000000000074100000000000007410000F9
:1047300000000000074100000000000007410000E9
:1047400000000000074100000000000007410000D9
:1047500000000000074100000000000007410000C9
:1047600000000000074100000000000007410000B9
:1047700000000000074100000000000007410000A9
:104780000000000007410000000000000741000099
:104790000000000007410000000000000741000089
:1047A0000000000007410000000000000741000079
:1047B0000000000007410000000000000741000069
:1047C0000000000007410000000000000741000059
:1047D0000000000007410000000000000741000049
:1047E0000000000007410000000000000741000039
:1047F0000000000007410000000000000741000029
:104800000000000007410000000000000741000018
:104810000000000007410000000000000741000008
:1048200000000000074100000000000007410000F8
:1048300000000000074100000000000007410000E8
:1048400000000000074100000000000007410000D8
:1048500000000000074100000000000007410000C8
:1048600000000000074100000000000007410000B8
:1048700000000000074100000000000007410000A8
:104880000000000007410000000000000741000098
:104890000000000007410000000000000741000088
:1048A0000000000007410000000000000741000078
:1048B0000000000007410000000000000741000068
:1048C0000000000007410000000000000741000058
:1048D0000000000007410000000000000741000048
:1048E0000000000007410000000000000741000038
:1048F0000000000007410000000000000741000028
:104900000000000007410000000000000741000017
:104910000000000007410000000000000741000007
:1049200000000000074100000000000007410000F7
:1049300000000000074100000000000007410000E7
:1049400000000000074100000000000007410000D7
:1049500000000000074100000000000007410000C7
:1049600000000000074100000000000007410000B7
:1049700000000000074100000000000007410000A7
:104980000000000007410000000000000741000097
:104990000000000007410000000000000741000087
:1049A0000000000007410000000000000741000077
:1049B0000000000007410000000000000741000067
:1049C0000000000007410000000000000741000057
:1049D0000000000007410000000000000741000047
:1049E0000000000007410000000000000741000037
:1049F0000000000007410000000000000741000027
:104A00000000000007410000000000000741000016
:104A10000000000007410000000000000741000006
:104A200000000000074100000000000007410000F6
:104A300000000000074100000000000007410000E6
:104A400000000000074100000000000007410000D6
:104A500000000000074100000000000007410000C6
:104A600000000000074100000000000007410000B6
:104A700000000000074100000000000007410000A6
:104A80000000000007410000000000000741000096
:104A90000000000007410000000000000741000086
:104AA0000000000007410000000000000741000076
:104AB0000000000007410000000000000741000066
:104AC0000000000007410000000000000741000056
:104AD0000000000007410000000000000741000046
:104AE0000000000007410000000000000741000036
:104AF0000000000007410000000000000741000026
:104B00000000000007410000000000000741000015
:104B10000000000007410000000000000741000005
:104B200000000000074100000000000007410000F5
:104B300000000000074100000000000007410000E5
:104B400000000000074100000000000007410000D5
:104B500000000000074100000000000007410000C5
:104B600000000000074100000000000007410000B5
:104B700000000000074100000000000007410000A5
:104B80000000000007410000000000000741000095
:104B90000000000007410000000000000741000085
:104BA0000000000007410000000000000741000075
:104BB0000000000007410000000000000741000065
:104BC0000000000007410000000000000741000055
:104BD0000000000007410000000000000741000045
:104BE0000000000007410000000000000741000035
:104BF0000000000007410000000000000741000025
:104C00000000000007410000000000000741000014
:104C10000000000007410000000000000741000004
:104C200000000000074100000000000007410000F4
:104C300000000000074100000000000007410000E4
:104C400000000000074100000000000007410000D4
:104C50000000000007410000452900001544000045
:104C600000000000074100000000000007410000B4
:104C700000000000074100000000000007410000A4
:104C80000000000007410000000000000741000094
:104C90000000000007410000000000000741000084
:104CA0000000000007410000000000000741000074
:104CB0000000000007410000000000000741000064
:104CC0000000000007410000000000000741000054
:104CD0000000000007410000000000000741000044
:104CE0000000000007410000000000000741000034
:104CF0000000000007410000000000000741000024
:104D00000000000007410000000000000741000013
:104D10000000000007410000000000000741000003
:104D200000000000074100000000000007410000F3
:104D300000000000074100000000000007410000E3
:104D400000000000074100000000000007410000D3
:104D500000000000074100000000000007410000C3
:104D60001F4400001544000000000000074100003F
:104D700000000000074100000000000007410000A3
:104D80000000000007410000000000000741000093
:104D90000000000007410000000000000741000083
:104DA0000000000007410000000000000741000073
:104DB000A91E00004943000041430000191E0000E5
:104DC000091E0000211E0000B14200004142000007
:104DD000A342000000000000DD41000000000000D0
:044DE00000000000CF
:104DF00005000000040000000100000000000000A9
:104E00000338FDD8704700000000000000000000DB
:104E10000338FDD8704700000200000005000000C4
:104E20000100000023510000DC4F000008200001B9
:104E3000FFFFFFFFFFFFFFFFFFFFFFFF000000007E
:104E4000000000000000000001000000FFFFFFFF65
:104E5000512563FCC2CAB9F3849E17A7ADFAE6BC1C
:104E6000FFFFFFFFFFFFFFFF00000000FFFFFFFF4E
:104E700096C298D84539A1F4A033EB2D817D0377F4
:104E8000F240A463E5E6BCF847422CE1F2D1176B8F
:104E9000F551BF376840B6CBCE5E316B5733CE2B62
:104EA000169E0F7C4AEBE78E9B7F1AFEE242E34F91
:104EB0004B60D2273E3CCE3BF6B053CCB0061D65CE
:104EC000BC86987655BDEBB3E7933AAAD835C65A57
:104ED000BB3500000D3700007D0B0000982F8A4283
:104EE00091443771CFFBC0B5A5DBB5E95BC256393C
:104EF000F111F159A4823F92D55E1CAB98AA07D854
:104F0000015B8312BE853124C37D0C55745DBE7276
:104F1000FEB1DE80A706DC9B74F19BC1C1699BE4F6
:104F20008647BEEFC69DC10FCCA10C246F2CE92D86
:104F3000AA84744ADCA9B05CDA88F97652513E98AA
:104F40006DC631A8C82703B0C77F59BFF30BE0C6B1
:104F50004791A7D55163CA0667292914850AB7273F
:104F600038211B2EFC6D2C4D130D385354730A65DC
:104F7000BB0A6A762EC9C281852C7292A1E8BFA2B3
:104F80004B661AA8708B4BC2A3516CC719E892D11B
:104F9000240699D685350EF470A06A1016C1A4199E
:104FA000086C371E4C774827B5BCB034B30C1C399D
:104FB0004AAAD84E4FCA9C5BF36F2E68EE828F745C
:104FC0006F63A5781478C8840802C78CFAFFBE9076
:104FD000EB6C50A4F7A3F9BEF27871C65B00000039
:104FE00008000000000000000000000000C00000F9
:104FF000204500000100000000C000000008000083
:10500000204500000200000000C0000000B00A00BF
:10501000204500000300000000C8000000A80A00AE
:10502000204500000400000000C8000000A80A009D
:10503000204500000500000000700B0000B00A00D1
:1050400020450000060000000020160000100000AF
:10505000204500000700000000301600002000007E
:1050600020450000000000200000000006000100B4
:105070000200000078500000000000007E51000097
:1050800002000000E04F16000000002086510000E2
:1050900021000000E0EF0220851B0000551B0000EE
:1050A00000000000A51C0000C91B0000C942000050
:1050B000CF4200001000000001FF00006501000069
:1050C000001000000200000005000000E84400009D
:1050D000E8440000F84400000045000008450000D6
:1050E000084500000100020010001100120020001D
:1050F0002100220023002400300031003200330060
:10510000FFFF10002DE15D29410B8D77679C110F8A
:105110001F8A2A8648CE3D030107002A8648CE3DD5
:105120000201003059301306072A8648CE3D02019D
:1051300006082A8648CE3D030107034200042ACB15
:10514000403CE8FEED5BA44995A1A91DAEE8DBBE9D
:105150001937CD14FB2F245737E5953988D994B9E1
:10516000D65AEBD7CDD5308AD6FE48B24A6A810EE0
:10517000E5F07D8B6834CC3A6AFC538EFAC1464C1C
:105180004153485F30005352414D5F3000636C6FB4
:10519000636B40313065303030007272616D2D6369
:1051A0006F6E74726F6C6C65724035303034623083
:1051B000303000040104030402040104010403016B
:1051C000040304010400000001000000FFFFFFFFD2
:1051D000C5410000E44F0000D51E000000000000A3
:1051E000FF0000000090D0030000000067000000F6
:1051F00000000000000000000000000000000000AF
:10520000000000000000000000000000000000009E
:10521000000000000000000000000000000000008E
:10522000000000000000000000000000000000007E
:1052300000000000000000000000000074000020DA
:0C524000740000200000000015E015E0E4
:10C000003DB8F39600000000000800002C02090073
:10C0100000000000000163000000000000000000BC
:10C02000FFFFFFFFFFFFFFFFFFFFFFFFFFFFFFFF20
:10C03000FFFFFFFFFFFFFFFFFFFFFFFFFFFFFFFF10
:10C04000FFFFFFFFFFFFFFFFFFFFFFFFFFFFFFFF00
:10C05000FFFFFFFFFFFFFFFFFFFFFFFFFFFFFFFFF0
:10C8000060420220C52C0300C7E00600A92C0300EB
:10C81000A92C0300A92C0300A92C0300A92C0300B8
:10C82000000000000000000000000000652E030072
:10C83000A92C030000000000CD2D0300A92C03004B
:10C84000A5300300A5300300A5300300A530030088
:10C85000A5300300A5300300A5300300A530030078
:10C86000A5300300A5300300A5300300A530030068
:10C87000A5300300A5300300A5300300A530030058
:10CA5000A5300300F7180700A5300300A530030038
:10CA6000A5300300A530030027190700A5300300F7
:10CA7000A5300300A5300300A5300300A530030056
:10CA8000A5300300A5300300A5300300A530030046
:10CA9000A5300300A5300300A5300300A530030036
:10CAA000A5300300A5300300A5300300A530030026
:10CAB000A5300300A5300300A5300300A530030016
:10CAC000A5300300A5300300A5300300A530030006
:10CAD000A5300300A5300300A5300300A5300300F6
:10CAE000A5300300A5300300A5300300A5300300E6
:10CAF000A5300300A5300300A5300300A5300300D6
:10CB0000A5300300A5300300A5300300A5300300C5
:10CB1000A5300300A5300300A5300300A5300300B5
:10CB2000A5300300A5300300A5300300A5300300A5
:10CB3000A5300300A5300300A5300300A530030095
:10CB4000A5300300A5300300A5300300A530030085
:10CB5000A5300300A5300300A5300300A530030075
:10CB6000A5300300A5300300A5300300A530030065
:10CB7000A5300300A5300300A5300300A530030055
:10CB8000A5300300A5300300A5300300A530030045
:10CB9000A5300300A5300300A5300300A530030035
:10CBA000A5300300A5300300A5300300A530030025
:10CBB000A5300300A5300300A5300300A530030015
:10CBC000A5300300A5300300A5300300A530030005
:10CBD000A530030011190700A5300300A53003009C
:10CBE000A5300300A5300300A5300300A5300300E5
:10CBF000A5300300A5300300A5300300A5300300D5
:10CC0000A5300300A5300300A5300300A5300300C4
:10CC1000A5300300A5300300A5300300A5300300B4
:10CC2000A5300300A5300300A5300300A5300300A4
:10CC3000A5300300A5300300A5300300A530030094
:10CC4000A5300300A5300300A5300300A530030084
:10CC5000A5300300A5300300A5300300A530030074
:10CC6000A5300300A5300300A5300300A530030064
:10CC7000A5300300A5300300A5300300FFFFFFFF30
:10CC8000064A074BDB7802604FF43472C37100230D
:10CC90008280082203728271704700BF0BEA010094
:10CCA00030270020064A074B1B7902604FF4B4720C
:10CCB000C371FF238280082203728271704700BF14
:10CCC0004FE50100302700202DE9F743C41D00285F
:10CCD000064624F007040CBF0020204600F024FD87
:10CCE000071E04DA6FF00B0003B0BDE8F0830EB945
:10CCF000FC42F7D4374D6989288903316B7B0330B7
:10CD00002A7B89B280B20EF07DF8011EEADB3C443A
:10CD1000AB78EA78002E04F10304134408BF002026
:10CD200024F0030403FB01F118BF204600F090FE3D
:10CD300020440EB90028D5DB2B790446B3B1697DB8
:10CD400019446B791944FF29CCDC0330002E2A8A60
:10CD5000C9B220F003070CBF0020384600F0E8FEFF
:10CD6000041EBFDB3C440EB9002CBBDB012000F0ED
:10CD7000D1FCC8B1A97BB9B195F82C300734002B90
:10CD800024F0070715BF402325234FF48172282282
:10CD9000002E14BF3846002002F0A8FC041EA1DBC0
:10CDA0003C440EB9002C9DDBAB7CE3B12B799BB1ED
:10CDB0000734002EA97C24F007070CBF002038465A
:10CDC00005F0B4FB041E8DDB3C4466B9002C0ADA86
:10CDD00088E700BF30270020012000F09BFC10B145
:10CDE000AB7B002BE4D1744B1B6893B1A97981B163
:10CDF0000334002EEA7C24F003070CBF00203846E1
:10CE00009847041EFFF66EAF3C4416B9002CFFF69F
:10CE100069AF6A4B1B688BB1297D79B10334002E51
:10CE200024F003070CBF002038469847041EFFF685
:10CE300059AF3C4416B9002CFFF654AF604BD3F801
:10CE40000080B8F1000F16D0697DA1B10334002E27
:10CE50002B7E24F0030708BF0020009318BF38463C
:10CE6000EB7DAA7DC047041EFFF63CAF3C4416B9DB
:10CE7000002CFFF637AF072000F04CFC98B1A979E1
:10CE800089B10334002EAA7E24F003070CBF0020D2
:10CE9000384600F03BFF041EFFF624AF3C4416B9B1
:10CEA000002CFFF61FAFB6FA86F895F825004FEA7A
:10CEB0005818A0B1E71CEB7F297F27F0070719441A
:10CEC000434647F00407C9B23A4600F061FF041E2A
:10CED000FFF608AF3C4416B9002CFFF603AF95F8F7
:10CEE0002610002959D00734002E2A8D24F0070778
:10CEF0000CBF002038460DF09AFF041EFFF6F2AE7C
:10CF00003C4416B9002CFFF6EDAE1EB1298D384613
:10CF10000AF00CF995F82010002940D095F824303B
:10CF2000002B3CD06A8C0734002E02F1240224F03E
:10CF300007090CBF0020484692B20DF078FF071E8B
:10CF4000FFF6D0AE4F4416B9002FFFF6CBAE033735
:10CF5000AB7F297F27F0070795F824001944434643
:10CF600047F00407C9B23A4600F004FF041EFFF67A
:10CF7000B9AE3C4416B9002CFFF6B4AE3EB16A8C93
:10CF8000484695F82010083292B20AF0D5F82B6B7B
:10CF90005BB176B12C630020A6E60F46B5E7002E04
:10CFA000F5D0002211461046EFE7002EF3D12046BF
:10CFB0009AE62834FBD595E6A4000020AC000020BA
:10CFC000A80000201FB572B6194B5D6BE5B9BFF321
:10CFD0004F8F1849184BCA6802F4E0621343CB60C4
:10CFE000BFF34F8F00BFFDE7B4FBF6F4D3B20132BD
:10CFF000002CF9D103F110026A4402F80C4C0A2209
:10D0000033B901A8A847E2E7044600220A26EDE763
:10D01000013BDBB203F110040DEB0406B0FBF2F4AC
:10D0200002FB1400303006F80C0C2046E8E700BF85
:10D030003027002000ED00E00400FA0513B5114C84
:10D040006846637B8DF80130237B8DF8003063895F
:10D05000ADF804302389ADF8023003F0E1F918B1DE
:10D06000DB210320FFF7AEFF207E03F009FA08B1B1
:10D07000DE21F6E7E07D03F0FDF908B1DF21F0E7FE
:10D0800002B010BD3027002070B50546002850D0F2
:10D090000CF0DAF818B94FF0FF34204670BD0AF0F2
:10D0A00097FCB0F5FA7FF6D8234C03262348656336
:10D0B000002500F0A9FA2A222946A01C84F838503D
:10D0C000257084F82C50256312F0FAF940F2011310
:10D0D00001212A46A67363801B2308462171238100
:10D0E000638140F20323A176A3811F2323824FF49F
:10D0F0000273638244F60113E382F7236384FB2304
:10D10000238502F051FB20B140F24F313046FFF74A
:10D1100059FF02F065FB044610B140F25231F5E7C9
:10D12000EFF3108572B600F05DFE002DB5D162B64A
:10D13000B3E76FF01504B0E7302700203DD00000C2
:10D1400038B51446002840F0D080694D95F8383045
:10D15000032B00F0C780B9B112B96FF0150038BDCC
:10D160000139162900F2C180DFE801F00C1D2035DD
:10D170005F68863B6B6E804147555A8C8F9DA0A39C
:10D1800095A6AA001378AB700020FFF79DFD00283C
:10D19000B7BF012302236FF00B0085F83830A8BF1A
:10D1A00085F83830DBE71378EB70EDE71379002B67
:10D1B000D3D05379002BD0D01288FB2ACDD81A2A8D
:10D1C0006388CAD91B3BE02BC7D82368A288AB6011
:10D1D000484B9A80D8E713786A799342BDD32B7174
:10D1E000D2E713782A799342B7D86B71CCE71378DA
:10D1F0002A799342B1D86B75C6E71378002BACD06F
:10D200005378013BDBB2F82BA7D813889278EB82D6
:10D21000394B9A70B8E71078687608F023FCB3E7CA
:10D220001378002B99D0AB76AEE7012000F072FAAC
:10D23000237808B1012B90D9AB73A5E713882B8213
:10D24000A2E71378AB719FE7072000F063FA10B9EB
:10D250002378012B81D9072000F05CFA18B12378DC
:10D26000002B3FF47AAF2378EB748DE71378082B0B
:10D270003FF673AF2B7587E71388FF2B3FF66DAF33
:10D28000AB7481E71378EB767EE713780E2B3FF6CD
:10D2900064AF2B7778E72368184A2B626368536082
:10D2A0002389138170E713786B776DE71378EB7739
:10D2B0006AE71378AB7767E7137885F82A3063E776
:10D2C00092786178207802F06FFA00287FF447AFF7
:10D2D0006378012B7FF658AF09F020FF00287FF418
:10D2E00053AF3AE74FF0FF3039E76FF02C0036E7E5
:10D2F0003027002038270020462700205027002014
:10D30000F8B50D46064630B329B311F0070422D113
:10D31000124F97F83830012B02D16FF00B00F8BD97
:10D32000032B02D14FF0FF30F9E700F09DF8002801
:10D33000F8D02846FFF7C8FC0028EEDB11F046FCC9
:10D340003046396B03F01EF9FFF778FE03232046C1
:10D3500087F83830E3E76FF01500E0E7302700206A
:10D3600010B5074C94F83830032B03D103F026F99D
:10D3700004F0A2F90DF082FE002084F8380010BD00
:10D380003027002050B1074B03F1140253F8041B5F
:10D39000934240F8041BF9D1002070476FF015004C
:10D3A000704700BFD6A20900074B10B593F838406C
:10D3B0003CB903F0B1F80320044900F0A3F920467A
:10D3C00010BD4FF0FF30FBE730270020A5CC000058
:10D3D000074B10B593F838403CB903F0B1F8022080
:10D3E000044900F08FF9204610BD4FF0FF30FBE7F5
:10D3F0003027002081CC0000054B10B593F8384051
:10D400001CB903F04BF8204610BD4FF0FF30FBE78E
:10D4100030270020054B10B593F838401CB90FF0A9
:10D42000BBFA204610BD4FF0FF30FBE7302700204D
:10D43000054B10B593F838401CB90FF0B0FA2046F0
:10D4400010BD4FF0FF30FBE73027002002680020BE
:10D45000014B1A60704700BF6C270020014B1B680E
:10D46000184700BF6C270020024B1868003818BF0F
:10D47000012070476C270020F7B504462D4E071D8C
:10D480002C48376004F030F90228054606D12949B6
:10D4900020460CF0F6FD284603B0F0BD042842D12A
:10D4A0003378092B0AD0262B1ED0314620460CF0AB
:10D4B00064FEB0F5817F2DD3722112E005213E205C
:10D4C0000CF0B2FD0028F0D1F37801A9327968465A
:10D4D00043EA0223ADF800300DF03CFA0028CFD02B
:10D4E00053210820FFF76EFD1A213E200CF09CFD11
:10D4F0000028DAD17368694601A8C3F30F23ADF899
:10D50000043011238DF806300DF05EFA0028B7D0F4
:10D510006521E6E70028B3D0A17820780CF084FDDF
:10D520000028B8D1ACE70828B5D1024920460CF054
:10D53000E0FDB0E770270020074B4FF0FF3141F6C8
:10D54000FF72C3E9001205490022C1E900221F2130
:10D55000C3E90212704700BF400000207428002079
:10D560003F280CD801380B4BC0F3421200F01F00CB
:10D5700053F8223023FA00F000F001007047FF2832
:10D5800006D04038044BC0F3421200F01F00EFE712
:10D59000012070474000002074280020074B0146FE
:10D5A000006849681A4603C240F48C221A6041F0B0
:10D5B000107242F4FF625A60704700BF40000020C2
:10D5C0000246024B0068516803C37047742800206C
:10D5D0000246024B0068516803C3704748000020B0
:10D5E000FD28084B16BF00F1FF303F20C0B24209B2
